{"abi":[{"type":"constructor","inputs":[{"name":"_router","type":"address","internalType":"address"}],"stateMutability":"nonpayable"},{"type":"receive","stateMutability":"payable"},{"type":"function","name":"CCIP_TOKEN","inputs":[],"outputs":[{"name":"","type":"address","internalType":"contract IERC20"}],"stateMutability":"view"},{"type":"function","name":"acceptOwnership","inputs":[],"outputs":[],"stateMutability":"nonpayable"},{"type":"function","name":"allowlistDestinationChain","inputs":[{"name":"_destinationChainSelector","type":"uint64","internalType":"uint64"},{"name":"allowed","type":"bool","internalType":"bool"}],"outputs":[],"stateMutability":"nonpayable"},{"type":"function","name":"allowlistedChains","inputs":[{"name":"","type":"uint64","internalType":"uint64"}],"outputs":[{"name":"","type":"bool","internalType":"bool"}],"stateMutability":"view"},{"type":"function","name":"depositFunds","inputs":[{"name":"isETH","type":"bool","internalType":"bool"},{"name":"amount","type":"uint256","internalType":"uint256"}],"outputs":[],"stateMutability":"payable"},{"type":"function","name":"executeOrders","inputs":[{"name":"orders","type":"tuple[]","internalType":"struct Executer.Order[]","components":[{"name":"user","type":"address","internalType":"address"},{"name":"traderAddress","type":"address","internalType":"address"},{"name":"amount","type":"uint256","internalType":"uint256"},{"name":"amountToTransfer","type":"uint256","internalType":"uint256"},{"name":"buyToken","type":"address","internalType":"address"},{"name":"sellToken","type":"address","internalType":"address"},{"name":"createdAt","type":"uint256","internalType":"uint256"},{"name":"status","type":"uint8","internalType":"enum Executer.Status"}]}],"outputs":[],"stateMutability":"nonpayable"},{"type":"function","name":"getPendingWithdrawals","inputs":[],"outputs":[{"name":"","type":"tuple[]","internalType":"struct Executer.WithdrawalRequest[]","components":[{"name":"user","type":"address","internalType":"address"},{"name":"amount","type":"uint256","internalType":"uint256"},{"name":"isETH","type":"bool","internalType":"bool"},{"name":"isPending","type":"bool","internalType":"bool"},{"name":"pendingAt","type":"uint256","internalType":"uint256"}]}],"stateMutability":"view"},{"type":"function","name":"getUserBalance","inputs":[{"name":"user","type":"address","internalType":"address"}],"outputs":[{"name":"","type":"tuple","internalType":"struct Executer.Balance","components":[{"name":"ethBalance","type":"uint256","internalType":"uint256"},{"name":"tokenBalance","type":"uint256","internalType":"uint256"}]}],"stateMutability":"view"},{"type":"function","name":"getUserOrders","inputs":[{"name":"user","type":"address","internalType":"address"}],"outputs":[{"name":"","type":"tuple[]","internalType":"struct Executer.Order[]","components":[{"name":"user","type":"address","internalType":"address"},{"name":"traderAddress","type":"address","internalType":"address"},{"name":"amount","type":"uint256","internalType":"uint256"},{"name":"amountToTransfer","type":"uint256","internalType":"uint256"},{"name":"buyToken","type":"address","internalType":"address"},{"name":"sellToken","type":"address","internalType":"address"},{"name":"createdAt","type":"uint256","internalType":"uint256"},{"name":"status","type":"uint8","internalType":"enum Executer.Status"}]}],"stateMutability":"view"},{"type":"function","name":"owner","inputs":[],"outputs":[{"name":"","type":"address","internalType":"address"}],"stateMutability":"view"},{"type":"function","name":"pendingWithdrawals","inputs":[{"name":"","type":"uint256","internalType":"uint256"}],"outputs":[{"name":"user","type":"address","internalType":"address"},{"name":"amount","type":"uint256","internalType":"uint256"},{"name":"isETH","type":"bool","internalType":"bool"},{"name":"isPending","type":"bool","internalType":"bool"},{"name":"pendingAt","type":"uint256","internalType":"uint256"}],"stateMutability":"view"},{"type":"function","name":"processPendingWithdrawals","inputs":[],"outputs":[],"stateMutability":"nonpayable"},{"type":"function","name":"transferOwnership","inputs":[{"name":"to","type":"address","internalType":"address"}],"outputs":[],"stateMutability":"nonpayable"},{"type":"function","name":"transferTokensPayNative","inputs":[{"name":"_destinationChainSelector","type":"uint64","internalType":"uint64"},{"name":"_receiver","type":"address","internalType":"address"},{"name":"_token","type":"address","internalType":"address"},{"name":"_amount","type":"uint256","internalType":"uint256"}],"outputs":[{"name":"messageId","type":"bytes32","internalType":"bytes32"}],"stateMutability":"nonpayable"},{"type":"function","name":"userBalances","inputs":[{"name":"","type":"address","internalType":"address"}],"outputs":[{"name":"ethBalance","type":"uint256","internalType":"uint256"},{"name":"tokenBalance","type":"uint256","internalType":"uint256"}],"stateMutability":"view"},{"type":"function","name":"userOrders","inputs":[{"name":"","type":"address","internalType":"address"},{"name":"","type":"uint256","internalType":"uint256"}],"outputs":[{"name":"user","type":"address","internalType":"address"},{"name":"traderAddress","type":"address","internalType":"address"},{"name":"amount","type":"uint256","internalType":"uint256"},{"name":"amountToTransfer","type":"uint256","internalType":"uint256"},{"name":"buyToken","type":"address","internalType":"address"},{"name":"sellToken","type":"address","internalType":"address"},{"name":"createdAt","type":"uint256","internalType":"uint256"},{"name":"status","type":"uint8","internalType":"enum Executer.Status"}],"stateMutability":"view"},{"type":"function","name":"withdrawFunds","inputs":[{"name":"amount","type":"uint256","internalType":"uint256"},{"name":"isETH","type":"bool","internalType":"bool"}],"outputs":[],"stateMutability":"nonpayable"},{"type":"event","name":"Deposit","inputs":[{"name":"user","type":"address","indexed":true,"internalType":"address"},{"name":"ethAmount","type":"uint256","indexed":false,"internalType":"uint256"},{"name":"tokenAmount","type":"uint256","indexed":false,"internalType":"uint256"}],"anonymous":false},{"type":"event","name":"MessageReceived","inputs":[{"name":"messageId","type":"bytes32","indexed":true,"internalType":"bytes32"},{"name":"sourceChainSelector","type":"uint64","indexed":true,"internalType":"uint64"},{"name":"sender","type":"address","indexed":false,"internalType":"address"},{"name":"text","type":"string","indexed":false,"internalType":"string"},{"name":"token","type":"address","indexed":false,"internalType":"address"},{"name":"tokenAmount","type":"uint256","indexed":false,"internalType":"uint256"}],"anonymous":false},{"type":"event","name":"MessageSent","inputs":[{"name":"messageId","type":"bytes32","indexed":true,"internalType":"bytes32"},{"name":"destinationChainSelector","type":"uint64","indexed":true,"internalType":"uint64"},{"name":"receiver","type":"address","indexed":false,"internalType":"address"},{"name":"text","type":"string","indexed":false,"internalType":"string"},{"name":"token","type":"address","indexed":false,"internalType":"address"},{"name":"tokenAmount","type":"uint256","indexed":false,"internalType":"uint256"},{"name":"feeToken","type":"address","indexed":false,"internalType":"address"},{"name":"fees","type":"uint256","indexed":false,"internalType":"uint256"}],"anonymous":false},{"type":"event","name":"OrderExecuted","inputs":[{"name":"user","type":"address","indexed":true,"internalType":"address"},{"name":"amount","type":"uint256","indexed":false,"internalType":"uint256"},{"name":"buyToken","type":"address","indexed":true,"internalType":"address"},{"name":"sellToken","type":"address","indexed":true,"internalType":"address"},{"name":"status","type":"uint8","indexed":false,"internalType":"enum Executer.Status"}],"anonymous":false},{"type":"event","name":"OwnershipTransferRequested","inputs":[{"name":"from","type":"address","indexed":true,"internalType":"address"},{"name":"to","type":"address","indexed":true,"internalType":"address"}],"anonymous":false},{"type":"event","name":"OwnershipTransferred","inputs":[{"name":"from","type":"address","indexed":true,"internalType":"address"},{"name":"to","type":"address","indexed":true,"internalType":"address"}],"anonymous":false},{"type":"event","name":"TokensTransferred","inputs":[{"name":"messageId","type":"bytes32","indexed":true,"internalType":"bytes32"},{"name":"destinationChainSelector","type":"uint64","indexed":true,"internalType":"uint64"},{"name":"receiver","type":"address","indexed":false,"internalType":"address"},{"name":"token","type":"address","indexed":false,"internalType":"address"},{"name":"tokenAmount","type":"uint256","indexed":false,"internalType":"uint256"},{"name":"feeToken","type":"address","indexed":false,"internalType":"address"},{"name":"fees","type":"uint256","indexed":false,"internalType":"uint256"}],"anonymous":false},{"type":"event","name":"Withdrawal","inputs":[{"name":"user","type":"address","indexed":true,"internalType":"address"},{"name":"amount","type":"uint256","indexed":false,"internalType":"uint256"},{"name":"isETH","type":"bool","indexed":false,"internalType":"bool"}],"anonymous":false},{"type":"event","name":"WithdrawalRequestAdded","inputs":[{"name":"user","type":"address","indexed":true,"internalType":"address"},{"name":"amount","type":"uint256","indexed":false,"internalType":"uint256"},{"name":"isETH","type":"bool","indexed":false,"internalType":"bool"}],"anonymous":false},{"type":"event","name":"WithdrawalRequestProcessed","inputs":[{"name":"user","type":"address","indexed":true,"internalType":"address"},{"name":"amount","type":"uint256","indexed":false,"internalType":"uint256"},{"name":"isETH","type":"bool","indexed":false,"internalType":"bool"}],"anonymous":false},{"type":"error","name":"DepositAmountZero","inputs":[]},{"type":"error","name":"DestinationChainNotAllowed","inputs":[{"name":"destinationChainSelector","type":"uint64","internalType":"uint64"}]},{"type":"error","name":"DestinationChainNotAllowlisted","inputs":[{"name":"destinationChainSelector","type":"uint64","internalType":"uint64"}]},{"type":"error","name":"FailedToWithdrawEth","inputs":[{"name":"owner","type":"address","internalType":"address"},{"name":"target","type":"address","internalType":"address"},{"name":"value","type":"uint256","internalType":"uint256"}]},{"type":"error","name":"InsufficientBalance","inputs":[]},{"type":"error","name":"InsufficientUserBalance","inputs":[]},{"type":"error","name":"InvalidReceiverAddress","inputs":[]},{"type":"error","name":"NotEnoughBalance","inputs":[{"name":"currentBalance","type":"uint256","internalType":"uint256"},{"name":"calculatedFees","type":"uint256","internalType":"uint256"}]},{"type":"error","name":"NothingToWithdraw","inputs":[]},{"type":"error","name":"ReentrancyGuardReentrantCall","inputs":[]},{"type":"error","name":"SenderNotAllowed","inputs":[{"name":"sender","type":"address","internalType":"address"}]},{"type":"error","name":"SourceChainNotAllowed","inputs":[{"name":"sourceChainSelector","type":"uint64","internalType":"uint64"}]},{"type":"error","name":"UndefinedToken","inputs":[]},{"type":"error","name":"WithdrawalAmountZero","inputs":[]}],"bytecode":{"object":"0x608060405234801561001057600080fd5b506040516123ef3803806123ef83398101604081905261002f9161018f565b60016000908155339081908161008c5760405162461bcd60e51b815260206004820152601860248201527f43616e6e6f7420736574206f776e657220746f207a65726f000000000000000060448201526064015b60405180910390fd5b600180546001600160a01b0319166001600160a01b03848116919091179091558116156100bc576100bc816100e5565b5050600780546001600160a01b0319166001600160a01b039390931692909217909155506101bf565b336001600160a01b0382160361013d5760405162461bcd60e51b815260206004820152601760248201527f43616e6e6f74207472616e7366657220746f2073656c660000000000000000006044820152606401610083565b600280546001600160a01b0319166001600160a01b03838116918217909255600154604051919216907fed8889f560326eb138920d842192f0eb3dd22b4f139c87a2c57538e05bae127890600090a350565b6000602082840312156101a157600080fd5b81516001600160a01b03811681146101b857600080fd5b9392505050565b612221806101ce6000396000f3fe6080604052600436106101025760003560e01c8063856652e911610095578063d132bfb911610064578063d132bfb914610366578063daeeb55f14610386578063e02c57251461039b578063e6150400146103c3578063f2fde38b1461041b57600080fd5b8063856652e9146102be5780638da5cb5b146102f257806396d3b83d14610324578063c37fc8a81461034457600080fd5b806347734892116100d157806347734892146101d157806351419b4b1461024e57806363c69f081461027c57806379ba5097146102a957600080fd5b80630bb106eb1461010e5780631a17de981461015357806326224c641461016857806345c0b5ce146101b157600080fd5b3661010957005b600080fd5b34801561011a57600080fd5b5061013e610129366004611ba2565b60066020526000908152604090205460ff1681565b60405190151581526020015b60405180910390f35b610166610161366004611bd2565b61043b565b005b34801561017457600080fd5b5061019c610183366004611c15565b6003602052600090815260409020805460019091015482565b6040805192835260208301919091520161014a565b3480156101bd57600080fd5b506101666101cc366004611c30565b6105fa565b3480156101dd57600080fd5b506102336101ec366004611c15565b6040805180820190915260008082526020820152506001600160a01b0316600090815260036020908152604091829020825180840190935280548352600101549082015290565b6040805182518152602092830151928101929092520161014a565b34801561025a57600080fd5b5061026e610269366004611c60565b610b7d565b60405190815260200161014a565b34801561028857600080fd5b5061029c610297366004611c15565b610e10565b60405161014a9190611ce3565b3480156102b557600080fd5b50610166610f15565b3480156102ca57600080fd5b506102de6102d9366004611d8e565b610fc3565b60405161014a989796959493929190611daa565b3480156102fe57600080fd5b506001546001600160a01b03165b6040516001600160a01b03909116815260200161014a565b34801561033057600080fd5b5061016661033f366004611e02565b611038565b34801561035057600080fd5b5061035961106c565b60405161014a9190611e2e565b34801561037257600080fd5b50610166610381366004611e9c565b61110c565b34801561039257600080fd5b50610166611408565b3480156103a757600080fd5b5061030c7375faf114eafb1bdbe2f0316df893fd58ce46aa4d81565b3480156103cf57600080fd5b506103e36103de366004611f11565b611889565b604080516001600160a01b0390961686526020860194909452911515928401929092529015156060830152608082015260a00161014a565b34801561042757600080fd5b50610166610436366004611c15565b6118da565b811561048c573460000361046257604051635d66204960e11b815260040160405180910390fd5b3360009081526003602052604081208054349290610481908490611f40565b909155506105a09050565b806000036104ad57604051635d66204960e11b815260040160405180910390fd5b6040516323b872dd60e01b8152336004820152306024820152604481018290527375faf114eafb1bdbe2f0316df893fd58ce46aa4d906323b872dd906064016020604051808303816000875af115801561050b573d6000803e3d6000fd5b505050506040513d601f19601f8201168201806040525081019061052f9190611f59565b6105785760405162461bcd60e51b8152602060048201526015602482015274151bdad95b881d1c985b9cd9995c8819985a5b1959605a1b60448201526064015b60405180910390fd5b336000908152600360205260408120600101805483929061059a908490611f40565b90915550505b337f90890809c654f11d6e72a28fa60149770a0d11ec6c92319d6ceb2bb0a4ea1a15836105ce5760006105d0565b345b846105db57836105de565b60005b6040805192835260208301919091520160405180910390a25050565b6106026118ee565b8160000361062357604051630eb8664d60e31b815260040160405180910390fd5b80156108495733600090815260036020526040902054821115610659576040516324aa779360e21b815260040160405180910390fd5b47828110156107bf576040805160a0810182523380825260208083018781526001848601818152606086018281524260808801908152600580548086018255600091909152975160049098027f036b6384b5eca791c62761152d0c79bb0604c104a5fb6f4eb0703f3154bb3db0810180546001600160a01b03909a166001600160a01b0319909a169990991790985593517f036b6384b5eca791c62761152d0c79bb0604c104a5fb6f4eb0703f3154bb3db188015590517f036b6384b5eca791c62761152d0c79bb0604c104a5fb6f4eb0703f3154bb3db287018054925115156101000261ff00199215159290921661ffff199093169290921717905590517f036b6384b5eca791c62761152d0c79bb0604c104a5fb6f4eb0703f3154bb3db390940193909355835187815290810192909252917f89eff5a100605cc9d3b3330733e7c1424060dd92ddc1afab0efaaf13117174d191015b60405180910390a250610b6f565b33600090815260036020526040812080548592906107de908490611f76565b9091555050604051339084156108fc029085906000818181858888f19350505050158015610810573d6000803e3d6000fd5b50604080518481526001602082015233917f06e0c61e7e9f4912ee1f3ce060b59207b98f9a232d711462af3166aeeed1250a91016107b1565b3360009081526003602052604090206001015482111561087c576040516324aa779360e21b815260040160405180910390fd5b6040516370a0823160e01b81523060048201526000907375faf114eafb1bdbe2f0316df893fd58ce46aa4d906370a0823190602401602060405180830381865afa1580156108ce573d6000803e3d6000fd5b505050506040513d601f19601f820116820180604052508101906108f29190611f89565b905082811015610a4b576040805160a081018252338082526020808301878152600084860181815260016060870181815242608089019081526005805493840181558552975160049092027f036b6384b5eca791c62761152d0c79bb0604c104a5fb6f4eb0703f3154bb3db0810180546001600160a01b039094166001600160a01b03199094169390931790925593517f036b6384b5eca791c62761152d0c79bb0604c104a5fb6f4eb0703f3154bb3db182015590517f036b6384b5eca791c62761152d0c79bb0604c104a5fb6f4eb0703f3154bb3db282018054945115156101000261ff00199215159290921661ffff19909516949094171790925593517f036b6384b5eca791c62761152d0c79bb0604c104a5fb6f4eb0703f3154bb3db390910155835187815290810192909252917f89eff5a100605cc9d3b3330733e7c1424060dd92ddc1afab0efaaf13117174d191016107b1565b3360009081526003602052604081206001018054859290610a6d908490611f76565b909155505060405163a9059cbb60e01b8152336004820152602481018490527375faf114eafb1bdbe2f0316df893fd58ce46aa4d9063a9059cbb906044016020604051808303816000875af1158015610aca573d6000803e3d6000fd5b505050506040513d601f19601f82011682018060405250810190610aee9190611f59565b610b325760405162461bcd60e51b8152602060048201526015602482015274151bdad95b881d1c985b9cd9995c8819985a5b1959605a1b604482015260640161056f565b604080518481526000602082015233917f06e0c61e7e9f4912ee1f3ce060b59207b98f9a232d711462af3166aeeed1250a910160405180910390a2505b610b796001600055565b5050565b6000610b87611918565b67ffffffffffffffff8516600090815260066020526040902054859060ff16610bcf57604051630a503cdb60e01b815267ffffffffffffffff8216600482015260240161056f565b846001600160a01b038116610bf75760405163502ffa3f60e11b815260040160405180910390fd5b6000610c06878787600061196b565b6007546040516320487ded60e01b81529192506000916001600160a01b03909116906320487ded90610c3e908c908690600401611fe8565b602060405180830381865afa158015610c5b573d6000803e3d6000fd5b505050506040513d601f19601f82011682018060405250810190610c7f9190611f89565b905047811115610cab57604051634787a10360e11b81524760048201526024810182905260440161056f565b60075460405163095ea7b360e01b81526001600160a01b039182166004820152602481018890529088169063095ea7b3906044016020604051808303816000875af1158015610cfe573d6000803e3d6000fd5b505050506040513d601f19601f82011682018060405250810190610d229190611f59565b506007546040516396f4e9f960e01b81526001600160a01b03909116906396f4e9f9908390610d57908d908790600401611fe8565b60206040518083038185885af1158015610d75573d6000803e3d6000fd5b50505050506040513d601f19601f82011682018060405250810190610d9a9190611f89565b604080516001600160a01b03808c1682528a166020820152908101889052600060608201526080810183905290955067ffffffffffffffff8a169086907fc15fb748c32ba4eb29c1c311e78533f93b4425eab49ea87c6fe4279ecadca0439060a00160405180910390a350505050949350505050565b6001600160a01b0381166000908152600460209081526040808320805482518185028101850190935280835260609492939192909184015b82821015610f0a57600084815260209081902060408051610100810182526008860290920180546001600160a01b03908116845260018201548116948401949094526002808201549284019290925260038101546060840152600481015484166080840152600581015490931660a0830152600683015460c0830152600783015491929160e084019160ff90911690811115610ee657610ee6611cab565b6002811115610ef757610ef7611cab565b8152505081526020019060010190610e48565b505050509050919050565b6002546001600160a01b03163314610f685760405162461bcd60e51b815260206004820152601660248201527526bab9ba10313290383937b837b9b2b21037bbb732b960511b604482015260640161056f565b600180546001600160a01b0319808216339081179093556002805490911690556040516001600160a01b03909116919082907f8be0079c531659141344cd1fd0a4f28419497f9722a3daafe3b4186f6b6457e090600090a350565b60046020528160005260406000208181548110610fdf57600080fd5b6000918252602090912060089091020180546001820154600283015460038401546004850154600586015460068701546007909701546001600160a01b0396871699509486169750929591949081169392169160ff1688565b611040611918565b67ffffffffffffffff919091166000908152600660205260409020805460ff1916911515919091179055565b60606005805480602002602001604051908101604052809291908181526020016000905b828210156111035760008481526020908190206040805160a0810182526004860290920180546001600160a01b0316835260018082015484860152600282015460ff8082161515948601949094526101009004909216151560608401526003015460808301529083529092019101611090565b50505050905090565b6111146118ee565b60005b818110156113fd576000838383818110611133576111336120c5565b9050610100020180360381019061114a91906120ea565b905073eeeeeeeeeeeeeeeeeeeeeeeeeeeeeeeeeeeeeeee6001600160a01b031681608001516001600160a01b0316036111f357606081015181516001600160a01b0316600090815260036020526040812080549091906111ab908490611f40565b909155505060408082015182516001600160a01b0316600090815260036020529182206001018054919290916111e2908490611f76565b9091555050600060e08201526112aa565b7375faf114eafb1bdbe2f0316df893fd58ce46aa4d6001600160a01b031681608001516001600160a01b0316036112895760408082015182516001600160a01b031660009081526003602052918220805491929091611253908490611f76565b9091555050606081015181516001600160a01b0316600090815260036020526040812060010180549091906111e2908490611f40565b600260e0820152604080516363daad6960e01b815290519081900360040190fd5b80516001600160a01b03908116600090815260046020818152604080842080546001808201835591865294839020875160089096020180546001600160a01b0319908116968816969096178155928701518382018054871691881691909117905590860151600280840191909155606087015160038401556080870151938301805486169487169490941790935560a086015160058301805490951695169490941790925560c0840151600683015560e084015160078301805486959293919260ff1990911691849081111561138257611382611cab565b021790555050508060a001516001600160a01b031681608001516001600160a01b031682600001516001600160a01b03167f7235682a8fa72d2d552c88bd5b6399e182e06d84037f5eb48df4c1446ce51c9984604001518560e001516040516113ec9291906121a8565b60405180910390a450600101611117565b50610b796001600055565b6114106118ee565b6040516370a0823160e01b815230600482015247906000907375faf114eafb1bdbe2f0316df893fd58ce46aa4d906370a0823190602401602060405180830381865afa158015611464573d6000803e3d6000fd5b505050506040513d601f19601f820116820180604052508101906114889190611f89565b905060005b60055481101561170c576000600582815481106114ac576114ac6120c5565b906000526020600020906004020190508060020160019054906101000a900460ff161561170357600281015460ff1680156114eb575080600101548410155b156115c757600181015481546001600160a01b03166000908152600360205260408120805490919061151e908490611f76565b9091555050805460018201546040516001600160a01b039092169181156108fc0291906000818181858888f19350505050158015611560573d6000803e3d6000fd5b5060028101805461ff001916905580546001808301546040516001600160a01b03909316927f3370ec8927056cc86c40a9fa5d6af6c02537a5a9db2b230f0e81809a60c457fe926115ba9282521515602082015260400190565b60405180910390a2611703565b600281015460ff161580156115e0575080600101548310155b156117035760018082015482546001600160a01b03166000908152600360205260408120909201805491929091611618908490611f76565b90915550508054600182015460405163a9059cbb60e01b81526001600160a01b03909216600483015260248201527375faf114eafb1bdbe2f0316df893fd58ce46aa4d9063a9059cbb906044016020604051808303816000875af1158015611684573d6000803e3d6000fd5b505050506040513d601f19601f820116820180604052508101906116a89190611f59565b5060028101805461ff00191690558054600182015460408051918252600060208301526001600160a01b03909216917f3370ec8927056cc86c40a9fa5d6af6c02537a5a9db2b230f0e81809a60c457fe910160405180910390a25b5060010161148d565b5060005b60055481101561187a576005818154811061172d5761172d6120c5565b906000526020600020906004020160020160019054906101000a900460ff16611868576005805461176090600190611f76565b81548110611770576117706120c5565b906000526020600020906004020160058281548110611791576117916120c5565b60009182526020909120825460049092020180546001600160a01b0319166001600160a01b039092169190911781556001808301549082015560028083018054918301805460ff938416151560ff19821681178355925461010090819004909416151590930261ff001990921661ffff19909316929092171790556003918201549101556005805480611826576118266121bc565b60008281526020812060046000199093019283020180546001600160a01b03191681556001810182905560028101805461ffff19169055600301559055611710565b80611872816121d2565b915050611710565b5050506118876001600055565b565b6005818154811061189957600080fd5b600091825260209091206004909102018054600182015460028301546003909301546001600160a01b0390921693509160ff80821692610100909204169085565b6118e2611918565b6118eb81611adb565b50565b60026000540361191157604051633ee5aeb560e01b815260040160405180910390fd5b6002600055565b6001546001600160a01b031633146118875760405162461bcd60e51b815260206004820152601660248201527527b7363c9031b0b63630b1363290313c9037bbb732b960511b604482015260640161056f565b6119a66040518060a0016040528060608152602001606081526020016060815260200160006001600160a01b03168152602001606081525090565b604080516001808252818301909252600091816020015b60408051808201909152600080825260208201528152602001906001900390816119bd5790505090506040518060400160405280866001600160a01b031681526020018581525081600081518110611a1757611a176120c5565b60209081029190910101526040805160a081019091526001600160a01b03871660c08201528060e081016040516020818303038152906040528152602001604051806020016040528060008152508152602001828152602001846001600160a01b03168152602001611acf6040518060200160405280600081525060408051915160248084019190915281518084039091018152604490920190526020810180516001600160e01b03166397a657c960e01b17905290565b90529695505050505050565b336001600160a01b03821603611b335760405162461bcd60e51b815260206004820152601760248201527f43616e6e6f74207472616e7366657220746f2073656c66000000000000000000604482015260640161056f565b600280546001600160a01b0319166001600160a01b03838116918217909255600154604051919216907fed8889f560326eb138920d842192f0eb3dd22b4f139c87a2c57538e05bae127890600090a350565b803567ffffffffffffffff81168114611b9d57600080fd5b919050565b600060208284031215611bb457600080fd5b611bbd82611b85565b9392505050565b80151581146118eb57600080fd5b60008060408385031215611be557600080fd5b8235611bf081611bc4565b946020939093013593505050565b80356001600160a01b0381168114611b9d57600080fd5b600060208284031215611c2757600080fd5b611bbd82611bfe565b60008060408385031215611c4357600080fd5b823591506020830135611c5581611bc4565b809150509250929050565b60008060008060808587031215611c7657600080fd5b611c7f85611b85565b9350611c8d60208601611bfe565b9250611c9b60408601611bfe565b9396929550929360600135925050565b634e487b7160e01b600052602160045260246000fd5b60038110611cdf57634e487b7160e01b600052602160045260246000fd5b9052565b602080825282518282018190526000919060409081850190868401855b82811015611d8157815180516001600160a01b0390811686528782015181168887015286820151878701526060808301519087015260808083015182169087015260a0808301519091169086015260c0808201519086015260e09081015190611d6b81870183611cc1565b5050610100939093019290850190600101611d00565b5091979650505050505050565b60008060408385031215611da157600080fd5b611bf083611bfe565b6001600160a01b038981168252888116602083015260408201889052606082018790528581166080830152841660a082015260c081018390526101008101611df560e0830184611cc1565b9998505050505050505050565b60008060408385031215611e1557600080fd5b611e1e83611b85565b91506020830135611c5581611bc4565b602080825282518282018190526000919060409081850190868401855b82811015611d8157815180516001600160a01b031685528681015187860152858101511515868601526060808201511515908601526080908101519085015260a09093019290850190600101611e4b565b60008060208385031215611eaf57600080fd5b823567ffffffffffffffff80821115611ec757600080fd5b818501915085601f830112611edb57600080fd5b813581811115611eea57600080fd5b8660208260081b8501011115611eff57600080fd5b60209290920196919550909350505050565b600060208284031215611f2357600080fd5b5035919050565b634e487b7160e01b600052601160045260246000fd5b80820180821115611f5357611f53611f2a565b92915050565b600060208284031215611f6b57600080fd5b8151611bbd81611bc4565b81810381811115611f5357611f53611f2a565b600060208284031215611f9b57600080fd5b5051919050565b6000815180845260005b81811015611fc857602081850181015186830182015201611fac565b506000602082860101526020601f19601f83011685010191505092915050565b6000604067ffffffffffffffff851683526020604081850152845160a0604086015261201760e0860182611fa2565b905081860151603f19808784030160608801526120348383611fa2565b6040890151888203830160808a01528051808352908601945060009350908501905b8084101561208857845180516001600160a01b0316835286015186830152938501936001939093019290860190612056565b5060608901516001600160a01b031660a08901526080890151888203830160c08a015295506120b78187611fa2565b9a9950505050505050505050565b634e487b7160e01b600052603260045260246000fd5b803560038110611b9d57600080fd5b60006101008083850312156120fe57600080fd5b6040519081019067ffffffffffffffff8211818310171561212f57634e487b7160e01b600052604160045260246000fd5b8160405261213c84611bfe565b815261214a60208501611bfe565b6020820152604084013560408201526060840135606082015261216f60808501611bfe565b608082015261218060a08501611bfe565b60a082015260c084013560c082015261219b60e085016120db565b60e0820152949350505050565b82815260408101611bbd6020830184611cc1565b634e487b7160e01b600052603160045260246000fd5b6000600182016121e4576121e4611f2a565b506001019056fea26469706673582212203e2bcecead8e9092ca3414b7f3786fac1574711386b3fd90fb13d9bd5d8bb98b64736f6c63430008190033","linkReferences":{}},"methodIdentifiers":{"CCIP_TOKEN()":"e02c5725","acceptOwnership()":"79ba5097","allowlistDestinationChain(uint64,bool)":"96d3b83d","allowlistedChains(uint64)":"0bb106eb","depositFunds(bool,uint256)":"1a17de98","executeOrders((address,address,uint256,uint256,address,address,uint256,uint8)[])":"d132bfb9","getPendingWithdrawals()":"c37fc8a8","getUserBalance(address)":"47734892","getUserOrders(address)":"63c69f08","owner()":"8da5cb5b","pendingWithdrawals(uint256)":"e6150400","processPendingWithdrawals()":"daeeb55f","transferOwnership(address)":"f2fde38b","transferTokensPayNative(uint64,address,address,uint256)":"51419b4b","userBalances(address)":"26224c64","userOrders(address,uint256)":"856652e9","withdrawFunds(uint256,bool)":"45c0b5ce"},"id":37}