{"abi":[{"type":"function","name":"CCIP_TOKEN","inputs":[],"outputs":[{"name":"","type":"address","internalType":"contract IERC20"}],"stateMutability":"view"},{"type":"function","name":"depositFunds","inputs":[{"name":"isETH","type":"bool","internalType":"bool"},{"name":"amount","type":"uint256","internalType":"uint256"}],"outputs":[],"stateMutability":"payable"},{"type":"function","name":"executeOrders","inputs":[{"name":"orders","type":"tuple[]","internalType":"struct Executer.Order[]","components":[{"name":"user","type":"address","internalType":"address"},{"name":"traderAddress","type":"address","internalType":"address"},{"name":"amount","type":"uint256","internalType":"uint256"},{"name":"amountToTransfer","type":"uint256","internalType":"uint256"},{"name":"orderType","type":"uint8","internalType":"enum Executer.OrderType"},{"name":"buyToken","type":"address","internalType":"address"},{"name":"sellToken","type":"address","internalType":"address"},{"name":"createdAt","type":"uint256","internalType":"uint256"},{"name":"status","type":"uint8","internalType":"enum Executer.Status"}]}],"outputs":[],"stateMutability":"nonpayable"},{"type":"function","name":"getUserBalance","inputs":[{"name":"user","type":"address","internalType":"address"}],"outputs":[{"name":"","type":"tuple","internalType":"struct Executer.Balance","components":[{"name":"ethBalance","type":"uint256","internalType":"uint256"},{"name":"tokenBalance","type":"uint256","internalType":"uint256"}]}],"stateMutability":"view"},{"type":"function","name":"getUserOrders","inputs":[{"name":"user","type":"address","internalType":"address"}],"outputs":[{"name":"","type":"tuple[]","internalType":"struct Executer.Order[]","components":[{"name":"user","type":"address","internalType":"address"},{"name":"traderAddress","type":"address","internalType":"address"},{"name":"amount","type":"uint256","internalType":"uint256"},{"name":"amountToTransfer","type":"uint256","internalType":"uint256"},{"name":"orderType","type":"uint8","internalType":"enum Executer.OrderType"},{"name":"buyToken","type":"address","internalType":"address"},{"name":"sellToken","type":"address","internalType":"address"},{"name":"createdAt","type":"uint256","internalType":"uint256"},{"name":"status","type":"uint8","internalType":"enum Executer.Status"}]}],"stateMutability":"view"},{"type":"function","name":"userBalances","inputs":[{"name":"","type":"address","internalType":"address"}],"outputs":[{"name":"ethBalance","type":"uint256","internalType":"uint256"},{"name":"tokenBalance","type":"uint256","internalType":"uint256"}],"stateMutability":"view"},{"type":"function","name":"userOrders","inputs":[{"name":"","type":"address","internalType":"address"},{"name":"","type":"uint256","internalType":"uint256"}],"outputs":[{"name":"user","type":"address","internalType":"address"},{"name":"traderAddress","type":"address","internalType":"address"},{"name":"amount","type":"uint256","internalType":"uint256"},{"name":"amountToTransfer","type":"uint256","internalType":"uint256"},{"name":"orderType","type":"uint8","internalType":"enum Executer.OrderType"},{"name":"buyToken","type":"address","internalType":"address"},{"name":"sellToken","type":"address","internalType":"address"},{"name":"createdAt","type":"uint256","internalType":"uint256"},{"name":"status","type":"uint8","internalType":"enum Executer.Status"}],"stateMutability":"view"},{"type":"function","name":"withdrawFunds","inputs":[{"name":"amount","type":"uint256","internalType":"uint256"},{"name":"isETH","type":"bool","internalType":"bool"}],"outputs":[],"stateMutability":"nonpayable"},{"type":"event","name":"Deposit","inputs":[{"name":"user","type":"address","indexed":true,"internalType":"address"},{"name":"ethAmount","type":"uint256","indexed":false,"internalType":"uint256"},{"name":"tokenAmount","type":"uint256","indexed":false,"internalType":"uint256"}],"anonymous":false},{"type":"event","name":"OrderExecuted","inputs":[{"name":"user","type":"address","indexed":true,"internalType":"address"},{"name":"amount","type":"uint256","indexed":false,"internalType":"uint256"},{"name":"orderType","type":"string","indexed":false,"internalType":"string"},{"name":"buyToken","type":"address","indexed":true,"internalType":"address"},{"name":"sellToken","type":"address","indexed":true,"internalType":"address"},{"name":"status","type":"uint8","indexed":false,"internalType":"enum Executer.Status"}],"anonymous":false},{"type":"event","name":"Withdrawal","inputs":[{"name":"user","type":"address","indexed":true,"internalType":"address"},{"name":"amount","type":"uint256","indexed":false,"internalType":"uint256"}],"anonymous":false},{"type":"error","name":"DepositAmountZero","inputs":[]},{"type":"error","name":"InsufficientBalance","inputs":[]},{"type":"error","name":"ReentrancyGuardReentrantCall","inputs":[]},{"type":"error","name":"UndefinedToken","inputs":[]},{"type":"error","name":"WithdrawalAmountZero","inputs":[]}],"bytecode":{"object":"0x6080604052348015600f57600080fd5b5060016000556111e3806100246000396000f3fe60806040526004361061007b5760003560e01c806363c69f081161004e57806363c69f0814610180578063856652e9146101ad578063afde5dcd146101e2578063e02c57251461020257600080fd5b80631a17de981461008057806326224c641461009557806345c0b5ce146100e35780634773489214610103575b600080fd5b61009361008e366004610d68565b610242565b005b3480156100a157600080fd5b506100c96100b0366004610db0565b6001602081905260009182526040909120805491015482565b604080519283526020830191909152015b60405180910390f35b3480156100ef57600080fd5b506100936100fe366004610dd2565b6103ab565b34801561010f57600080fd5b5061016561011e366004610db0565b6040805180820190915260008082526020820152506001600160a01b0316600090815260016020818152604092839020835180850190945280548452909101549082015290565b604080518251815260209283015192810192909252016100da565b34801561018c57600080fd5b506101a061019b366004610db0565b6106b6565b6040516100da9190610e3c565b3480156101b957600080fd5b506101cd6101c8366004610f0e565b6107fb565b6040516100da99989796959493929190610f2a565b3480156101ee57600080fd5b506100936101fd366004610f92565b61087b565b34801561020e57600080fd5b5061022a73fd57b4ddbf88a4e07ff4e34c487b99af2fe82a0581565b6040516001600160a01b0390911681526020016100da565b8115610293573460000361026957604051635d66204960e11b815260040160405180910390fd5b336000908152600160205260408120805434929061028890849061101e565b909155506103a79050565b806000036102b457604051635d66204960e11b815260040160405180910390fd5b6040516323b872dd60e01b81523360048201523060248201526044810182905273fd57b4ddbf88a4e07ff4e34c487b99af2fe82a05906323b872dd906064016020604051808303816000875af1158015610312573d6000803e3d6000fd5b505050506040513d601f19601f820116820180604052508101906103369190611037565b61037f5760405162461bcd60e51b8152602060048201526015602482015274151bdad95b881d1c985b9cd9995c8819985a5b1959605a1b60448201526064015b60405180910390fd5b33600090815260016020819052604082200180548392906103a190849061101e565b90915550505b5050565b6103b3610d2d565b816000036103d457604051630eb8664d60e31b815260040160405180910390fd5b80156104cc573360009081526001602052604090205482111561040a57604051631e9acf1760e31b815260040160405180910390fd5b3360009081526001602052604081208054849290610429908490611054565b909155504790508281101561047557604051838152339060008051602061118e833981519152906020015b60405180910390a2604051631e9acf1760e31b815260040160405180910390fd5b604051339084156108fc029085906000818181858888f193505050501580156104a2573d6000803e3d6000fd5b50604051838152339060008051602061118e8339815191529060200160405180910390a2506106ac565b336000908152600160208190526040909120015482111561050057604051631e9acf1760e31b815260040160405180910390fd5b3360009081526001602081905260408220018054849290610522908490611054565b90915550506040516370a0823160e01b815230600482015260009073fd57b4ddbf88a4e07ff4e34c487b99af2fe82a05906370a0823190602401602060405180830381865afa158015610579573d6000803e3d6000fd5b505050506040513d601f19601f8201168201806040525081019061059d9190611067565b9050828110156105c757604051838152339060008051602061118e83398151915290602001610454565b60405163a9059cbb60e01b81523360048201526024810184905273fd57b4ddbf88a4e07ff4e34c487b99af2fe82a059063a9059cbb906044016020604051808303816000875af115801561061f573d6000803e3d6000fd5b505050506040513d601f19601f820116820180604052508101906106439190611037565b6106875760405162461bcd60e51b8152602060048201526015602482015274151bdad95b881d1c985b9cd9995c8819985a5b1959605a1b6044820152606401610376565b604051838152339060008051602061118e8339815191529060200160405180910390a2505b6103a76001600055565b6001600160a01b0381166000908152600260209081526040808320805482518185028101850190935280835260609492939192909184015b828210156107f057600084815260209081902060408051610120810182526008860290920180546001600160a01b0390811684526001808301549091169484019490945260028101549183019190915260038101546060830152600481015491929091608084019160ff9091169081111561076b5761076b610e02565b600181111561077c5761077c610e02565b815260048201546001600160a01b0361010090910481166020830152600583015416604082015260068201546060820152600782015460809091019060ff1660028111156107cc576107cc610e02565b60028111156107dd576107dd610e02565b81525050815260200190600101906106ee565b505050509050919050565b6002602052816000526040600020818154811061081757600080fd5b6000918252602090912060089091020180546001820154600283015460038401546004850154600586015460068701546007909701546001600160a01b03968716995094861697509295919460ff8083169561010090930482169490911692911689565b610883610d2d565b60005b81811015610d225760008383838181106108a2576108a2611080565b905061012002018036038101906108b991906110ec565b9050600073eeeeeeeeeeeeeeeeeeeeeeeeeeeeeeeeeeeeeeee6001600160a01b03168260a001516001600160a01b031603610a1b5750606081015181516001600160a01b0316600090815260016020526040812080544793929061091e90849061101e565b909155505060408083015183516001600160a01b0316600090815260016020819052928120909201805491929091610957908490611054565b9091555050600161010083015260608201511580159061097a5750816060015181115b15610a1657815160608301516040516000926001600160a01b031691908381818185875af1925050503d80600081146109cf576040519150601f19603f3d011682016040523d82523d6000602084013e6109d4565b606091505b50509050806109e45760016109e7565b60005b83610100019060028111156109fe576109fe610e02565b90816002811115610a1157610a11610e02565b905250505b610bfb565b73fd57b4ddbf88a4e07ff4e34c487b99af2fe82a056001600160a01b03168260a001516001600160a01b031603610bd95760a08201516040516370a0823160e01b81523060048201526001600160a01b03909116906370a0823190602401602060405180830381865afa158015610a96573d6000803e3d6000fd5b505050506040513d601f19601f82011682018060405250810190610aba9190611067565b60408084015184516001600160a01b03166000908152600160205291822080549394509092909190610aed908490611054565b9091555050606082015182516001600160a01b031660009081526001602081905260408220018054909190610b2390849061101e565b90915550506001610100830152606082015115801590610b465750816060015181115b15610a165760a08201518251606084015160405163a9059cbb60e01b81526001600160a01b039283166004820152602481019190915291169063a9059cbb906044016020604051808303816000875af1158015610ba7573d6000803e3d6000fd5b505050506040513d601f19601f82011682018060405250810190610bcb9190611037565b506000610100830152610bfb565b6002610100830152604080516363daad6960e01b815290519081900360040190fd5b81516001600160a01b03908116600090815260026020818152604080842080546001818101835591865294839020885160089096020180549587166001600160a01b031996871617815592880151838201805491909716951694909417909455928501519083015560608401516003830155608084015160048301805486949360ff19909116908381811115610c9357610c93610e02565b021790555060a0820151600482018054610100600160a81b0319166101006001600160a01b0393841681029190911790915560c08401516005840180546001600160a01b031916919093161790915560e0830151600683015582015160078201805460ff19166001836002811115610d0d57610d0d610e02565b02179055505060019093019250610886915050565b506103a76001600055565b600260005403610d5057604051633ee5aeb560e01b815260040160405180910390fd5b6002600055565b8015158114610d6557600080fd5b50565b60008060408385031215610d7b57600080fd5b8235610d8681610d57565b946020939093013593505050565b80356001600160a01b0381168114610dab57600080fd5b919050565b600060208284031215610dc257600080fd5b610dcb82610d94565b9392505050565b60008060408385031215610de557600080fd5b823591506020830135610df781610d57565b809150509250929050565b634e487b7160e01b600052602160045260246000fd5b60028110610e2857610e28610e02565b9052565b60038110610e2857610e28610e02565b602080825282518282018190526000919060409081850190868401855b82811015610f0157815180516001600160a01b039081168652878201511687860152858101518686015260608082015190860152608080820151610e9f82880182610e18565b505060a0818101516001600160a01b03811687830152505060c0818101516001600160a01b03811687830152505060e081810151908601526101009081015190610eeb81870183610e2c565b5050610120939093019290850190600101610e59565b5091979650505050505050565b60008060408385031215610f2157600080fd5b610d8683610d94565b6001600160a01b038a8116825289811660208301526040820189905260608201889052610120820190610f606080840189610e18565b86811660a0840152851660c083015260e08201849052610f84610100830184610e2c565b9a9950505050505050505050565b60008060208385031215610fa557600080fd5b823567ffffffffffffffff80821115610fbd57600080fd5b818501915085601f830112610fd157600080fd5b813581811115610fe057600080fd5b86602061012083028501011115610ff657600080fd5b60209290920196919550909350505050565b634e487b7160e01b600052601160045260246000fd5b8082018082111561103157611031611008565b92915050565b60006020828403121561104957600080fd5b8151610dcb81610d57565b8181038181111561103157611031611008565b60006020828403121561107957600080fd5b5051919050565b634e487b7160e01b600052603260045260246000fd5b604051610120810167ffffffffffffffff811182821017156110c857634e487b7160e01b600052604160045260246000fd5b60405290565b803560028110610dab57600080fd5b803560038110610dab57600080fd5b600061012082840312156110ff57600080fd5b611107611096565b61111083610d94565b815261111e60208401610d94565b60208201526040830135604082015260608301356060820152611143608084016110ce565b608082015261115460a08401610d94565b60a082015261116560c08401610d94565b60c082015260e083013560e08201526101006111828185016110dd565b90820152939250505056fe7fcf532c15f0a6db0bd6d0e038bea71d30d808c7d98cb3bf7268a95bf5081b65a2646970667358221220a51b0e3454f4942ee9c176eec16a3537e0737958520efcfafe51515a00f6ed9764736f6c63430008190033","linkReferences":{}},"methodIdentifiers":{"CCIP_TOKEN()":"e02c5725","depositFunds(bool,uint256)":"1a17de98","executeOrders((address,address,uint256,uint256,uint8,address,address,uint256,uint8)[])":"afde5dcd","getUserBalance(address)":"47734892","getUserOrders(address)":"63c69f08","userBalances(address)":"26224c64","userOrders(address,uint256)":"856652e9","withdrawFunds(uint256,bool)":"45c0b5ce"},"id":25}